{
  "_format": "hh-sol-artifact-1",
  "contractName": "DecentralizedExchange",
  "sourceName": "contracts/Decentralized.sol",
  "abi": [
    {
      "inputs": [
        {
          "internalType": "address",
          "name": "_tokenAddress",
          "type": "address"
        }
      ],
      "stateMutability": "nonpayable",
      "type": "constructor"
    },
    {
      "anonymous": false,
      "inputs": [
        {
          "indexed": true,
          "internalType": "address",
          "name": "user",
          "type": "address"
        },
        {
          "indexed": true,
          "internalType": "enum DecentralizedExchange.OrderType",
          "name": "orderType",
          "type": "uint8"
        },
        {
          "indexed": false,
          "internalType": "uint256",
          "name": "amount",
          "type": "uint256"
        },
        {
          "indexed": false,
          "internalType": "uint256",
          "name": "price",
          "type": "uint256"
        }
      ],
      "name": "OrderCancelled",
      "type": "event"
    },
    {
      "anonymous": false,
      "inputs": [
        {
          "indexed": true,
          "internalType": "address",
          "name": "user",
          "type": "address"
        },
        {
          "indexed": true,
          "internalType": "enum DecentralizedExchange.OrderType",
          "name": "orderType",
          "type": "uint8"
        },
        {
          "indexed": false,
          "internalType": "uint256",
          "name": "amount",
          "type": "uint256"
        },
        {
          "indexed": false,
          "internalType": "uint256",
          "name": "price",
          "type": "uint256"
        }
      ],
      "name": "OrderPlaced",
      "type": "event"
    },
    {
      "anonymous": false,
      "inputs": [
        {
          "indexed": true,
          "internalType": "address",
          "name": "previousOwner",
          "type": "address"
        },
        {
          "indexed": true,
          "internalType": "address",
          "name": "newOwner",
          "type": "address"
        }
      ],
      "name": "OwnershipTransferred",
      "type": "event"
    },
    {
      "anonymous": false,
      "inputs": [
        {
          "indexed": true,
          "internalType": "address",
          "name": "buyer",
          "type": "address"
        },
        {
          "indexed": true,
          "internalType": "address",
          "name": "seller",
          "type": "address"
        },
        {
          "indexed": false,
          "internalType": "uint256",
          "name": "amount",
          "type": "uint256"
        },
        {
          "indexed": false,
          "internalType": "uint256",
          "name": "price",
          "type": "uint256"
        }
      ],
      "name": "TradeExecuted",
      "type": "event"
    },
    {
      "inputs": [
        {
          "internalType": "enum DecentralizedExchange.OrderType",
          "name": "_orderType",
          "type": "uint8"
        },
        {
          "internalType": "uint256",
          "name": "_amount",
          "type": "uint256"
        },
        {
          "internalType": "uint256",
          "name": "_price",
          "type": "uint256"
        }
      ],
      "name": "cancelOrder",
      "outputs": [],
      "stateMutability": "nonpayable",
      "type": "function"
    },
    {
      "inputs": [
        {
          "internalType": "uint256",
          "name": "_amount",
          "type": "uint256"
        }
      ],
      "name": "deposit",
      "outputs": [],
      "stateMutability": "nonpayable",
      "type": "function"
    },
    {
      "inputs": [
        {
          "internalType": "uint256",
          "name": "_buyAmount",
          "type": "uint256"
        },
        {
          "internalType": "uint256",
          "name": "_buyPrice",
          "type": "uint256"
        },
        {
          "internalType": "uint256",
          "name": "_sellAmount",
          "type": "uint256"
        },
        {
          "internalType": "uint256",
          "name": "_sellPrice",
          "type": "uint256"
        }
      ],
      "name": "executeTrade",
      "outputs": [],
      "stateMutability": "nonpayable",
      "type": "function"
    },
    {
      "inputs": [
        {
          "internalType": "bytes32",
          "name": "",
          "type": "bytes32"
        },
        {
          "internalType": "uint256",
          "name": "",
          "type": "uint256"
        }
      ],
      "name": "orderBook",
      "outputs": [
        {
          "internalType": "address",
          "name": "user",
          "type": "address"
        },
        {
          "internalType": "uint256",
          "name": "amount",
          "type": "uint256"
        },
        {
          "internalType": "uint256",
          "name": "price",
          "type": "uint256"
        },
        {
          "internalType": "enum DecentralizedExchange.OrderType",
          "name": "orderType",
          "type": "uint8"
        },
        {
          "internalType": "bool",
          "name": "isActive",
          "type": "bool"
        }
      ],
      "stateMutability": "view",
      "type": "function"
    },
    {
      "inputs": [],
      "name": "owner",
      "outputs": [
        {
          "internalType": "address",
          "name": "",
          "type": "address"
        }
      ],
      "stateMutability": "view",
      "type": "function"
    },
    {
      "inputs": [
        {
          "internalType": "enum DecentralizedExchange.OrderType",
          "name": "_orderType",
          "type": "uint8"
        },
        {
          "internalType": "uint256",
          "name": "_amount",
          "type": "uint256"
        },
        {
          "internalType": "uint256",
          "name": "_price",
          "type": "uint256"
        }
      ],
      "name": "placeOrder",
      "outputs": [],
      "stateMutability": "nonpayable",
      "type": "function"
    },
    {
      "inputs": [],
      "name": "renounceOwnership",
      "outputs": [],
      "stateMutability": "nonpayable",
      "type": "function"
    },
    {
      "inputs": [],
      "name": "token",
      "outputs": [
        {
          "internalType": "contract IERC20",
          "name": "",
          "type": "address"
        }
      ],
      "stateMutability": "view",
      "type": "function"
    },
    {
      "inputs": [
        {
          "internalType": "address",
          "name": "newOwner",
          "type": "address"
        }
      ],
      "name": "transferOwnership",
      "outputs": [],
      "stateMutability": "nonpayable",
      "type": "function"
    },
    {
      "inputs": [
        {
          "internalType": "address",
          "name": "",
          "type": "address"
        },
        {
          "internalType": "address",
          "name": "",
          "type": "address"
        }
      ],
      "name": "userBalances",
      "outputs": [
        {
          "internalType": "uint256",
          "name": "",
          "type": "uint256"
        }
      ],
      "stateMutability": "view",
      "type": "function"
    },
    {
      "inputs": [
        {
          "internalType": "uint256",
          "name": "_amount",
          "type": "uint256"
        }
      ],
      "name": "withdraw",
      "outputs": [],
      "stateMutability": "nonpayable",
      "type": "function"
    }
  ],
  "bytecode": "0x60806040523480156200001157600080fd5b506040516200298738038062002987833981810160405281019062000037919062000182565b620000576200004b6200009f60201b60201c565b620000a760201b60201c565b80600160006101000a81548173ffffffffffffffffffffffffffffffffffffffff021916908373ffffffffffffffffffffffffffffffffffffffff16021790555050620001fc565b600033905090565b60008060009054906101000a900473ffffffffffffffffffffffffffffffffffffffff169050816000806101000a81548173ffffffffffffffffffffffffffffffffffffffff021916908373ffffffffffffffffffffffffffffffffffffffff1602179055508173ffffffffffffffffffffffffffffffffffffffff168173ffffffffffffffffffffffffffffffffffffffff167f8be0079c531659141344cd1fd0a4f28419497f9722a3daafe3b4186f6b6457e060405160405180910390a35050565b6000815190506200017c81620001e2565b92915050565b6000602082840312156200019557600080fd5b6000620001a5848285016200016b565b91505092915050565b6000620001bb82620001c2565b9050919050565b600073ffffffffffffffffffffffffffffffffffffffff82169050919050565b620001ed81620001ae565b8114620001f957600080fd5b50565b61277b806200020c6000396000f3fe608060405234801561001057600080fd5b50600436106100a95760003560e01c8063aac08e4111610071578063aac08e411461012a578063adb519801461015e578063b6b55f251461018e578063e18a9218146101aa578063f2fde38b146101c6578063fc0c546a146101e2576100a9565b80632e1a7d4d146100ae578063715018a6146100ca578063803d397c146100d45780638cff4a34146100f05780638da5cb5b1461010c575b600080fd5b6100c860048036038101906100c39190611e44565b610200565b005b6100d261048c565b005b6100ee60048036038101906100e99190611df5565b6104a0565b005b61010a60048036038101906101059190611e6d565b6108b6565b005b6101146113b2565b6040516101219190612260565b60405180910390f35b610144600480360381019061013f9190611db9565b6113db565b6040516101559594939291906122db565b60405180910390f35b61017860048036038101906101739190611d54565b611468565b6040516101859190612469565b60405180910390f35b6101a860048036038101906101a39190611e44565b61148d565b005b6101c460048036038101906101bf9190611df5565b61163a565b005b6101e060048036038101906101db9190611d2b565b611ab5565b005b6101ea611b39565b6040516101f7919061232e565b60405180910390f35b60008111610243576040517f08c379a000000000000000000000000000000000000000000000000000000000815260040161023a906123c9565b60405180910390fd5b80600360003373ffffffffffffffffffffffffffffffffffffffff1673ffffffffffffffffffffffffffffffffffffffff1681526020019081526020016000206000600160009054906101000a900473ffffffffffffffffffffffffffffffffffffffff1673ffffffffffffffffffffffffffffffffffffffff1673ffffffffffffffffffffffffffffffffffffffff168152602001908152602001600020541015610324576040517f08c379a000000000000000000000000000000000000000000000000000000000815260040161031b906123e9565b60405180910390fd5b80600360003373ffffffffffffffffffffffffffffffffffffffff1673ffffffffffffffffffffffffffffffffffffffff1681526020019081526020016000206000600160009054906101000a900473ffffffffffffffffffffffffffffffffffffffff1673ffffffffffffffffffffffffffffffffffffffff1673ffffffffffffffffffffffffffffffffffffffff16815260200190815260200160002060008282546103d29190612514565b92505081905550600160009054906101000a900473ffffffffffffffffffffffffffffffffffffffff1673ffffffffffffffffffffffffffffffffffffffff1663a9059cbb33836040518363ffffffff1660e01b81526004016104369291906122b2565b602060405180830381600087803b15801561045057600080fd5b505af1158015610464573d6000803e3d6000fd5b505050506040513d601f19601f820116820180604052508101906104889190611d90565b5050565b610494611b5f565b61049e6000611bdd565b565b60003383836040516020016104b7939291906121d5565b6040516020818303038152906040528051906020012090506000600260008381526020019081526020016000209050600084905060005b828054905081101561086a5760008214156105085761086a565b3373ffffffffffffffffffffffffffffffffffffffff16838281548110610558577f4e487b7100000000000000000000000000000000000000000000000000000000600052603260045260246000fd5b906000526020600020906004020160000160009054906101000a900473ffffffffffffffffffffffffffffffffffffffff1673ffffffffffffffffffffffffffffffffffffffff1614801561060157508281815481106105e1577f4e487b7100000000000000000000000000000000000000000000000000000000600052603260045260246000fd5b906000526020600020906004020160030160019054906101000a900460ff165b15610857576000838281548110610641577f4e487b7100000000000000000000000000000000000000000000000000000000600052603260045260246000fd5b90600052602060002090600402016001015490508083106106d25780836106689190612514565b925060008483815481106106a5577f4e487b7100000000000000000000000000000000000000000000000000000000600052603260045260246000fd5b906000526020600020906004020160030160016101000a81548160ff021916908315150217905550610738565b8284838154811061070c577f4e487b7100000000000000000000000000000000000000000000000000000000600052603260045260246000fd5b9060005260206000209060040201600101600082825461072c9190612514565b92505081905550600092505b876001811115610771577f4e487b7100000000000000000000000000000000000000000000000000000000600052602160045260246000fd5b3373ffffffffffffffffffffffffffffffffffffffff167f30eaf38998e183442816c2dcf149dccf1c44a61c18f52d7fd2bc01a3f6bdeda08685815481106107e2577f4e487b7100000000000000000000000000000000000000000000000000000000600052603260045260246000fd5b90600052602060002090600402016001015487868154811061082d577f4e487b7100000000000000000000000000000000000000000000000000000000600052603260045260246000fd5b90600052602060002090600402016002015460405161084d929190612484565b60405180910390a3505b8080610862906125e3565b9150506104ee565b50600081146108ae576040517f08c379a00000000000000000000000000000000000000000000000000000000081526004016108a590612409565b60405180910390fd5b505050505050565b6000841180156108c65750600082115b610905576040517f08c379a00000000000000000000000000000000000000000000000000000000081526004016108fc906123a9565b60405180910390fd5b80831015610948576040517f08c379a000000000000000000000000000000000000000000000000000000000815260040161093f90612449565b60405180910390fd5b600033858560405160200161095f939291906121d5565b604051602081830303815290604052805190602001209050600033848460405160200161098e939291906121d5565b6040516020818303038152906040528051906020012090506000600260008481526020019081526020016000209050600060026000848152602001908152602001600020905060005b82805490508110156113a75760005b828054905081101561139357838281548110610a2b577f4e487b7100000000000000000000000000000000000000000000000000000000600052603260045260246000fd5b906000526020600020906004020160030160019054906101000a900460ff168015610aaa5750828181548110610a8a577f4e487b7100000000000000000000000000000000000000000000000000000000600052603260045260246000fd5b906000526020600020906004020160030160019054906101000a900460ff165b15611380576000610b4f858481548110610aed577f4e487b7100000000000000000000000000000000000000000000000000000000600052603260045260246000fd5b906000526020600020906004020160010154858481548110610b38577f4e487b7100000000000000000000000000000000000000000000000000000000600052603260045260246000fd5b906000526020600020906004020160010154611ca1565b90506000848381548110610b8c577f4e487b7100000000000000000000000000000000000000000000000000000000600052603260045260246000fd5b9060005260206000209060040201600201549050600160009054906101000a900473ffffffffffffffffffffffffffffffffffffffff1673ffffffffffffffffffffffffffffffffffffffff1663a9059cbb868581548110610c17577f4e487b7100000000000000000000000000000000000000000000000000000000600052603260045260246000fd5b906000526020600020906004020160000160009054906101000a900473ffffffffffffffffffffffffffffffffffffffff16846040518363ffffffff1660e01b8152600401610c679291906122b2565b602060405180830381600087803b158015610c8157600080fd5b505af1158015610c95573d6000803e3d6000fd5b505050506040513d601f19601f82011682018060405250810190610cb99190611d90565b508160036000878681548110610cf8577f4e487b7100000000000000000000000000000000000000000000000000000000600052603260045260246000fd5b906000526020600020906004020160000160009054906101000a900473ffffffffffffffffffffffffffffffffffffffff1673ffffffffffffffffffffffffffffffffffffffff1673ffffffffffffffffffffffffffffffffffffffff1681526020019081526020016000206000600160009054906101000a900473ffffffffffffffffffffffffffffffffffffffff1673ffffffffffffffffffffffffffffffffffffffff1673ffffffffffffffffffffffffffffffffffffffff1681526020019081526020016000206000828254610dd29190612514565b92505081905550600160009054906101000a900473ffffffffffffffffffffffffffffffffffffffff1673ffffffffffffffffffffffffffffffffffffffff1663a9059cbb878681548110610e50577f4e487b7100000000000000000000000000000000000000000000000000000000600052603260045260246000fd5b906000526020600020906004020160000160009054906101000a900473ffffffffffffffffffffffffffffffffffffffff16846040518363ffffffff1660e01b8152600401610ea09291906122b2565b602060405180830381600087803b158015610eba57600080fd5b505af1158015610ece573d6000803e3d6000fd5b505050506040513d601f19601f82011682018060405250810190610ef29190611d90565b508160036000888781548110610f31577f4e487b7100000000000000000000000000000000000000000000000000000000600052603260045260246000fd5b906000526020600020906004020160000160009054906101000a900473ffffffffffffffffffffffffffffffffffffffff1673ffffffffffffffffffffffffffffffffffffffff1673ffffffffffffffffffffffffffffffffffffffff1681526020019081526020016000206000600160009054906101000a900473ffffffffffffffffffffffffffffffffffffffff1673ffffffffffffffffffffffffffffffffffffffff1673ffffffffffffffffffffffffffffffffffffffff168152602001908152602001600020600082825461100b91906124be565b9250508190555084838154811061104b577f4e487b7100000000000000000000000000000000000000000000000000000000600052603260045260246000fd5b906000526020600020906004020160000160009054906101000a900473ffffffffffffffffffffffffffffffffffffffff1673ffffffffffffffffffffffffffffffffffffffff168685815481106110cc577f4e487b7100000000000000000000000000000000000000000000000000000000600052603260045260246000fd5b906000526020600020906004020160000160009054906101000a900473ffffffffffffffffffffffffffffffffffffffff1673ffffffffffffffffffffffffffffffffffffffff167f54424bcd37c121359634358c4b6124e821af711811c1ad2fb8f96b94b046338c8484604051611145929190612484565b60405180910390a381868581548110611187577f4e487b7100000000000000000000000000000000000000000000000000000000600052603260045260246000fd5b906000526020600020906004020160010160008282546111a79190612514565b92505081905550818584815481106111e8577f4e487b7100000000000000000000000000000000000000000000000000000000600052603260045260246000fd5b906000526020600020906004020160010160008282546112089190612514565b92505081905550600086858154811061124a577f4e487b7100000000000000000000000000000000000000000000000000000000600052603260045260246000fd5b90600052602060002090600402016001015414156112c657600086858154811061129d577f4e487b7100000000000000000000000000000000000000000000000000000000600052603260045260246000fd5b906000526020600020906004020160030160016101000a81548160ff0219169083151502179055505b6000858481548110611301577f4e487b7100000000000000000000000000000000000000000000000000000000600052603260045260246000fd5b906000526020600020906004020160010154141561137d576000858481548110611354577f4e487b7100000000000000000000000000000000000000000000000000000000600052603260045260246000fd5b906000526020600020906004020160030160016101000a81548160ff0219169083151502179055505b50505b808061138b906125e3565b9150506109e6565b50808061139f906125e3565b9150506109d7565b505050505050505050565b60008060009054906101000a900473ffffffffffffffffffffffffffffffffffffffff16905090565b600260205281600052604060002081815481106113f757600080fd5b9060005260206000209060040201600091509150508060000160009054906101000a900473ffffffffffffffffffffffffffffffffffffffff16908060010154908060020154908060030160009054906101000a900460ff16908060030160019054906101000a900460ff16905085565b6003602052816000526040600020602052806000526040600020600091509150505481565b600081116114d0576040517f08c379a00000000000000000000000000000000000000000000000000000000081526004016114c7906123c9565b60405180910390fd5b600160009054906101000a900473ffffffffffffffffffffffffffffffffffffffff1673ffffffffffffffffffffffffffffffffffffffff166323b872dd3330846040518463ffffffff1660e01b815260040161152f9392919061227b565b602060405180830381600087803b15801561154957600080fd5b505af115801561155d573d6000803e3d6000fd5b505050506040513d601f19601f820116820180604052508101906115819190611d90565b5080600360003373ffffffffffffffffffffffffffffffffffffffff1673ffffffffffffffffffffffffffffffffffffffff1681526020019081526020016000206000600160009054906101000a900473ffffffffffffffffffffffffffffffffffffffff1673ffffffffffffffffffffffffffffffffffffffff1673ffffffffffffffffffffffffffffffffffffffff168152602001908152602001600020600082825461163091906124be565b9250508190555050565b60008211801561164a5750600081115b611689576040517f08c379a000000000000000000000000000000000000000000000000000000000815260040161168090612349565b60405180910390fd5b600060018111156116c3577f4e487b7100000000000000000000000000000000000000000000000000000000600052602160045260246000fd5b8360018111156116fc577f4e487b7100000000000000000000000000000000000000000000000000000000600052602160045260246000fd5b1480611777575060018081111561173c577f4e487b7100000000000000000000000000000000000000000000000000000000600052602160045260246000fd5b836001811115611775577f4e487b7100000000000000000000000000000000000000000000000000000000600052602160045260246000fd5b145b6117b6576040517f08c379a00000000000000000000000000000000000000000000000000000000081526004016117ad90612389565b60405180910390fd5b600160009054906101000a900473ffffffffffffffffffffffffffffffffffffffff1673ffffffffffffffffffffffffffffffffffffffff166323b872dd3330856040518463ffffffff1660e01b81526004016118159392919061227b565b602060405180830381600087803b15801561182f57600080fd5b505af1158015611843573d6000803e3d6000fd5b505050506040513d601f19601f820116820180604052508101906118679190611d90565b5060006040518060a001604052803373ffffffffffffffffffffffffffffffffffffffff1681526020018481526020018381526020018560018111156118d6577f4e487b7100000000000000000000000000000000000000000000000000000000600052602160045260246000fd5b81526020016001151581525090506000338484426040516020016118fd9493929190612212565b6040516020818303038152906040528051906020012090506002600082815260200190815260200160002082908060018154018082558091505060019003906000526020600020906004020160009091909190915060008201518160000160006101000a81548173ffffffffffffffffffffffffffffffffffffffff021916908373ffffffffffffffffffffffffffffffffffffffff160217905550602082015181600101556040820151816002015560608201518160030160006101000a81548160ff021916908360018111156119fe577f4e487b7100000000000000000000000000000000000000000000000000000000600052602160045260246000fd5b021790555060808201518160030160016101000a81548160ff0219169083151502179055505050846001811115611a5e577f4e487b7100000000000000000000000000000000000000000000000000000000600052602160045260246000fd5b3373ffffffffffffffffffffffffffffffffffffffff167f3240767a0580cc59aad2311dc8726f768a8a3494e29b625d081c6bccc8d22ded8686604051611aa6929190612484565b60405180910390a35050505050565b611abd611b5f565b600073ffffffffffffffffffffffffffffffffffffffff168173ffffffffffffffffffffffffffffffffffffffff161415611b2d576040517f08c379a0000000000000000000000000000000000000000000000000000000008152600401611b2490612369565b60405180910390fd5b611b3681611bdd565b50565b600160009054906101000a900473ffffffffffffffffffffffffffffffffffffffff1681565b611b67611cba565b73ffffffffffffffffffffffffffffffffffffffff16611b856113b2565b73ffffffffffffffffffffffffffffffffffffffff1614611bdb576040517f08c379a0000000000000000000000000000000000000000000000000000000008152600401611bd290612429565b60405180910390fd5b565b60008060009054906101000a900473ffffffffffffffffffffffffffffffffffffffff169050816000806101000a81548173ffffffffffffffffffffffffffffffffffffffff021916908373ffffffffffffffffffffffffffffffffffffffff1602179055508173ffffffffffffffffffffffffffffffffffffffff168173ffffffffffffffffffffffffffffffffffffffff167f8be0079c531659141344cd1fd0a4f28419497f9722a3daafe3b4186f6b6457e060405160405180910390a35050565b6000818310611cb05781611cb2565b825b905092915050565b600033905090565b600081359050611cd1816126d9565b92915050565b600081519050611ce6816126f0565b92915050565b600081359050611cfb81612707565b92915050565b600081359050611d108161271e565b92915050565b600081359050611d258161272e565b92915050565b600060208284031215611d3d57600080fd5b6000611d4b84828501611cc2565b91505092915050565b60008060408385031215611d6757600080fd5b6000611d7585828601611cc2565b9250506020611d8685828601611cc2565b9150509250929050565b600060208284031215611da257600080fd5b6000611db084828501611cd7565b91505092915050565b60008060408385031215611dcc57600080fd5b6000611dda85828601611cec565b9250506020611deb85828601611d16565b9150509250929050565b600080600060608486031215611e0a57600080fd5b6000611e1886828701611d01565b9350506020611e2986828701611d16565b9250506040611e3a86828701611d16565b9150509250925092565b600060208284031215611e5657600080fd5b6000611e6484828501611d16565b91505092915050565b60008060008060808587031215611e8357600080fd5b6000611e9187828801611d16565b9450506020611ea287828801611d16565b9350506040611eb387828801611d16565b9250506060611ec487828801611d16565b91505092959194509250565b611ed981612548565b82525050565b611ef0611eeb82612548565b61262c565b82525050565b611eff8161255a565b82525050565b611f0e816125ad565b82525050565b611f1d816125d1565b82525050565b6000611f306018836124ad565b91507f496e76616c6964206f7264657220706172616d657465727300000000000000006000830152602082019050919050565b6000611f706026836124ad565b91507f4f776e61626c653a206e6577206f776e657220697320746865207a65726f206160008301527f64647265737300000000000000000000000000000000000000000000000000006020830152604082019050919050565b6000611fd66012836124ad565b91507f496e76616c6964206f72646572207479706500000000000000000000000000006000830152602082019050919050565b60006120166015836124ad565b91507f496e76616c696420747261646520616d6f756e747300000000000000000000006000830152602082019050919050565b6000612056600e836124ad565b91507f496e76616c696420616d6f756e740000000000000000000000000000000000006000830152602082019050919050565b60006120966014836124ad565b91507f496e73756666696369656e742062616c616e63650000000000000000000000006000830152602082019050919050565b60006120d66023836124ad565b91507f496e73756666696369656e74206f7264657220616d6f756e7420746f2063616e60008301527f63656c00000000000000000000000000000000000000000000000000000000006020830152604082019050919050565b600061213c6020836124ad565b91507f4f776e61626c653a2063616c6c6572206973206e6f7420746865206f776e65726000830152602082019050919050565b600061217c6014836124ad565b91507f496e76616c6964207472616465207072696365730000000000000000000000006000830152602082019050919050565b6121b8816125a3565b82525050565b6121cf6121ca826125a3565b612650565b82525050565b60006121e18286611edf565b6014820191506121f182856121be565b60208201915061220182846121be565b602082019150819050949350505050565b600061221e8287611edf565b60148201915061222e82866121be565b60208201915061223e82856121be565b60208201915061224e82846121be565b60208201915081905095945050505050565b60006020820190506122756000830184611ed0565b92915050565b60006060820190506122906000830186611ed0565b61229d6020830185611ed0565b6122aa60408301846121af565b949350505050565b60006040820190506122c76000830185611ed0565b6122d460208301846121af565b9392505050565b600060a0820190506122f06000830188611ed0565b6122fd60208301876121af565b61230a60408301866121af565b6123176060830185611f14565b6123246080830184611ef6565b9695505050505050565b60006020820190506123436000830184611f05565b92915050565b6000602082019050818103600083015261236281611f23565b9050919050565b6000602082019050818103600083015261238281611f63565b9050919050565b600060208201905081810360008301526123a281611fc9565b9050919050565b600060208201905081810360008301526123c281612009565b9050919050565b600060208201905081810360008301526123e281612049565b9050919050565b6000602082019050818103600083015261240281612089565b9050919050565b60006020820190508181036000830152612422816120c9565b9050919050565b600060208201905081810360008301526124428161212f565b9050919050565b600060208201905081810360008301526124628161216f565b9050919050565b600060208201905061247e60008301846121af565b92915050565b600060408201905061249960008301856121af565b6124a660208301846121af565b9392505050565b600082825260208201905092915050565b60006124c9826125a3565b91506124d4836125a3565b9250827fffffffffffffffffffffffffffffffffffffffffffffffffffffffffffffffff038211156125095761250861265a565b5b828201905092915050565b600061251f826125a3565b915061252a836125a3565b92508282101561253d5761253c61265a565b5b828203905092915050565b600061255382612583565b9050919050565b60008115159050919050565b6000819050919050565b600081905061257e826126c5565b919050565b600073ffffffffffffffffffffffffffffffffffffffff82169050919050565b6000819050919050565b60006125b8826125bf565b9050919050565b60006125ca82612583565b9050919050565b60006125dc82612570565b9050919050565b60006125ee826125a3565b91507fffffffffffffffffffffffffffffffffffffffffffffffffffffffffffffffff8214156126215761262061265a565b5b600182019050919050565b60006126378261263e565b9050919050565b6000612649826126b8565b9050919050565b6000819050919050565b7f4e487b7100000000000000000000000000000000000000000000000000000000600052601160045260246000fd5b7f4e487b7100000000000000000000000000000000000000000000000000000000600052602160045260246000fd5b60008160601b9050919050565b600281106126d6576126d5612689565b5b50565b6126e281612548565b81146126ed57600080fd5b50565b6126f98161255a565b811461270457600080fd5b50565b61271081612566565b811461271b57600080fd5b50565b6002811061272b57600080fd5b50565b612737816125a3565b811461274257600080fd5b5056fea2646970667358221220fde05a3e37e4160fec945b0d06fad4bd4a6bb5d4d21a578687f45f54c6ccf59a64736f6c63430008000033",
  "linkReferences": {},
  "deployedLinkReferences": {}
}